{
  "_format": "hh-sol-artifact-1",
  "contractName": "ERC20Factory",
  "sourceName": "contracts/Factory-Contract.sol",
  "abi": [
    {
      "inputs": [
        {
          "internalType": "address",
          "name": "_implementation",
          "type": "address"
        }
      ],
      "stateMutability": "nonpayable",
      "type": "constructor"
    },
    {
      "inputs": [],
      "name": "FailedDeployment",
      "type": "error"
    },
    {
      "inputs": [
        {
          "internalType": "uint256",
          "name": "balance",
          "type": "uint256"
        },
        {
          "internalType": "uint256",
          "name": "needed",
          "type": "uint256"
        }
      ],
      "name": "InsufficientBalance",
      "type": "error"
    },
    {
      "anonymous": false,
      "inputs": [
        {
          "indexed": true,
          "internalType": "address",
          "name": "tokenAddress",
          "type": "address"
        },
        {
          "indexed": false,
          "internalType": "string",
          "name": "name",
          "type": "string"
        },
        {
          "indexed": false,
          "internalType": "string",
          "name": "symbol",
          "type": "string"
        },
        {
          "indexed": false,
          "internalType": "uint256",
          "name": "initialSupply",
          "type": "uint256"
        }
      ],
      "name": "TokenCreated",
      "type": "event"
    },
    {
      "inputs": [
        {
          "internalType": "string",
          "name": "name",
          "type": "string"
        },
        {
          "internalType": "string",
          "name": "symbol",
          "type": "string"
        },
        {
          "internalType": "uint256",
          "name": "initialSupply",
          "type": "uint256"
        }
      ],
      "name": "createToken",
      "outputs": [
        {
          "internalType": "address",
          "name": "",
          "type": "address"
        }
      ],
      "stateMutability": "nonpayable",
      "type": "function"
    },
    {
      "inputs": [],
      "name": "implementation",
      "outputs": [
        {
          "internalType": "address",
          "name": "",
          "type": "address"
        }
      ],
      "stateMutability": "view",
      "type": "function"
    }
  ],
  "bytecode": "0x608060405234801561001057600080fd5b506040516107c83803806107c8833981810160405281019061003291906100db565b806000806101000a81548173ffffffffffffffffffffffffffffffffffffffff021916908373ffffffffffffffffffffffffffffffffffffffff16021790555050610108565b600080fd5b600073ffffffffffffffffffffffffffffffffffffffff82169050919050565b60006100a88261007d565b9050919050565b6100b88161009d565b81146100c357600080fd5b50565b6000815190506100d5816100af565b92915050565b6000602082840312156100f1576100f0610078565b5b60006100ff848285016100c6565b91505092915050565b6106b1806101176000396000f3fe608060405234801561001057600080fd5b50600436106100365760003560e01c80635b0605301461003b5780635c60da1b1461006b575b600080fd5b61005560048036038101906100509190610445565b610089565b6040516100629190610511565b60405180910390f35b610073610185565b6040516100809190610511565b60405180910390f35b6000806100b560008054906101000a900473ffffffffffffffffffffffffffffffffffffffff166101a9565b90508073ffffffffffffffffffffffffffffffffffffffff1663bd3a13f6868686336040518563ffffffff1660e01b81526004016100f694939291906105ba565b600060405180830381600087803b15801561011057600080fd5b505af1158015610124573d6000803e3d6000fd5b505050508073ffffffffffffffffffffffffffffffffffffffff167f75d1eb2d61d7e210835bc16e78ac4d0e4f905c108a81852a6b68c4d46b4f40f38686866040516101729392919061060d565b60405180910390a2809150509392505050565b60008054906101000a900473ffffffffffffffffffffffffffffffffffffffff1681565b60006101b68260006101bd565b9050919050565b6000814710156102065747826040517fcf4791810000000000000000000000000000000000000000000000000000000081526004016101fd929190610652565b60405180910390fd5b763d602d80600a3d3981f3363d3d373d3d3d363d730000008360601b60e81c176000526e5af43d82803e903d91602b57fd5bf38360781b176020526037600983f09050600073ffffffffffffffffffffffffffffffffffffffff168173ffffffffffffffffffffffffffffffffffffffff16036102af576040517fb06ebf3d00000000000000000000000000000000000000000000000000000000815260040160405180910390fd5b92915050565b6000604051905090565b600080fd5b600080fd5b600080fd5b600080fd5b6000601f19601f8301169050919050565b7f4e487b7100000000000000000000000000000000000000000000000000000000600052604160045260246000fd5b61031c826102d3565b810181811067ffffffffffffffff8211171561033b5761033a6102e4565b5b80604052505050565b600061034e6102b5565b905061035a8282610313565b919050565b600067ffffffffffffffff82111561037a576103796102e4565b5b610383826102d3565b9050602081019050919050565b82818337600083830152505050565b60006103b26103ad8461035f565b610344565b9050828152602081018484840111156103ce576103cd6102ce565b5b6103d9848285610390565b509392505050565b600082601f8301126103f6576103f56102c9565b5b813561040684826020860161039f565b91505092915050565b6000819050919050565b6104228161040f565b811461042d57600080fd5b50565b60008135905061043f81610419565b92915050565b60008060006060848603121561045e5761045d6102bf565b5b600084013567ffffffffffffffff81111561047c5761047b6102c4565b5b610488868287016103e1565b935050602084013567ffffffffffffffff8111156104a9576104a86102c4565b5b6104b5868287016103e1565b92505060406104c686828701610430565b9150509250925092565b600073ffffffffffffffffffffffffffffffffffffffff82169050919050565b60006104fb826104d0565b9050919050565b61050b816104f0565b82525050565b60006020820190506105266000830184610502565b92915050565b600081519050919050565b600082825260208201905092915050565b60005b8381101561056657808201518184015260208101905061054b565b60008484015250505050565b600061057d8261052c565b6105878185610537565b9350610597818560208601610548565b6105a0816102d3565b840191505092915050565b6105b48161040f565b82525050565b600060808201905081810360008301526105d48187610572565b905081810360208301526105e88186610572565b90506105f760408301856105ab565b6106046060830184610502565b95945050505050565b600060608201905081810360008301526106278186610572565b9050818103602083015261063b8185610572565b905061064a60408301846105ab565b949350505050565b600060408201905061066760008301856105ab565b61067460208301846105ab565b939250505056fea264697066735822122016aebf86baf9d74d3f73460065cf8e264dec53174cf4d40fe6e09ec28c71953d64736f6c634300081b0033",
  "linkReferences": {},
  "deployedLinkReferences": {}
}