{
  "_format": "hh-sol-artifact-1",
  "contractName": "ERC20Implementation",
  "sourceName": "contracts/ERC20Implementation.sol",
  "abi": [
    {
      "inputs": [
        {
          "internalType": "string",
          "name": "name_",
          "type": "string"
        },
        {
          "internalType": "string",
          "name": "symbol_",
          "type": "string"
        },
        {
          "internalType": "uint256",
          "name": "initialSupply_",
          "type": "uint256"
        }
      ],
      "stateMutability": "nonpayable",
      "type": "constructor"
    },
    {
      "inputs": [
        {
          "internalType": "address",
          "name": "spender",
          "type": "address"
        },
        {
          "internalType": "uint256",
          "name": "allowance",
          "type": "uint256"
        },
        {
          "internalType": "uint256",
          "name": "needed",
          "type": "uint256"
        }
      ],
      "name": "ERC20InsufficientAllowance",
      "type": "error"
    },
    {
      "inputs": [
        {
          "internalType": "address",
          "name": "sender",
          "type": "address"
        },
        {
          "internalType": "uint256",
          "name": "balance",
          "type": "uint256"
        },
        {
          "internalType": "uint256",
          "name": "needed",
          "type": "uint256"
        }
      ],
      "name": "ERC20InsufficientBalance",
      "type": "error"
    },
    {
      "inputs": [
        {
          "internalType": "address",
          "name": "approver",
          "type": "address"
        }
      ],
      "name": "ERC20InvalidApprover",
      "type": "error"
    },
    {
      "inputs": [
        {
          "internalType": "address",
          "name": "receiver",
          "type": "address"
        }
      ],
      "name": "ERC20InvalidReceiver",
      "type": "error"
    },
    {
      "inputs": [
        {
          "internalType": "address",
          "name": "sender",
          "type": "address"
        }
      ],
      "name": "ERC20InvalidSender",
      "type": "error"
    },
    {
      "inputs": [
        {
          "internalType": "address",
          "name": "spender",
          "type": "address"
        }
      ],
      "name": "ERC20InvalidSpender",
      "type": "error"
    },
    {
      "anonymous": false,
      "inputs": [
        {
          "indexed": true,
          "internalType": "address",
          "name": "owner",
          "type": "address"
        },
        {
          "indexed": true,
          "internalType": "address",
          "name": "spender",
          "type": "address"
        },
        {
          "indexed": false,
          "internalType": "uint256",
          "name": "value",
          "type": "uint256"
        }
      ],
      "name": "Approval",
      "type": "event"
    },
    {
      "anonymous": false,
      "inputs": [
        {
          "indexed": true,
          "internalType": "address",
          "name": "from",
          "type": "address"
        },
        {
          "indexed": true,
          "internalType": "address",
          "name": "to",
          "type": "address"
        },
        {
          "indexed": false,
          "internalType": "uint256",
          "name": "value",
          "type": "uint256"
        }
      ],
      "name": "Transfer",
      "type": "event"
    },
    {
      "inputs": [
        {
          "internalType": "address",
          "name": "owner",
          "type": "address"
        },
        {
          "internalType": "address",
          "name": "spender",
          "type": "address"
        }
      ],
      "name": "allowance",
      "outputs": [
        {
          "internalType": "uint256",
          "name": "",
          "type": "uint256"
        }
      ],
      "stateMutability": "view",
      "type": "function"
    },
    {
      "inputs": [
        {
          "internalType": "address",
          "name": "spender",
          "type": "address"
        },
        {
          "internalType": "uint256",
          "name": "value",
          "type": "uint256"
        }
      ],
      "name": "approve",
      "outputs": [
        {
          "internalType": "bool",
          "name": "",
          "type": "bool"
        }
      ],
      "stateMutability": "nonpayable",
      "type": "function"
    },
    {
      "inputs": [
        {
          "internalType": "address",
          "name": "account",
          "type": "address"
        }
      ],
      "name": "balanceOf",
      "outputs": [
        {
          "internalType": "uint256",
          "name": "",
          "type": "uint256"
        }
      ],
      "stateMutability": "view",
      "type": "function"
    },
    {
      "inputs": [],
      "name": "decimals",
      "outputs": [
        {
          "internalType": "uint8",
          "name": "",
          "type": "uint8"
        }
      ],
      "stateMutability": "view",
      "type": "function"
    },
    {
      "inputs": [
        {
          "internalType": "string",
          "name": "tokenName",
          "type": "string"
        },
        {
          "internalType": "string",
          "name": "tokenSymbol",
          "type": "string"
        },
        {
          "internalType": "uint256",
          "name": "initialSupply",
          "type": "uint256"
        },
        {
          "internalType": "address",
          "name": "owner",
          "type": "address"
        }
      ],
      "name": "initialize",
      "outputs": [],
      "stateMutability": "nonpayable",
      "type": "function"
    },
    {
      "inputs": [],
      "name": "name",
      "outputs": [
        {
          "internalType": "string",
          "name": "",
          "type": "string"
        }
      ],
      "stateMutability": "view",
      "type": "function"
    },
    {
      "inputs": [],
      "name": "symbol",
      "outputs": [
        {
          "internalType": "string",
          "name": "",
          "type": "string"
        }
      ],
      "stateMutability": "view",
      "type": "function"
    },
    {
      "inputs": [],
      "name": "totalSupply",
      "outputs": [
        {
          "internalType": "uint256",
          "name": "",
          "type": "uint256"
        }
      ],
      "stateMutability": "view",
      "type": "function"
    },
    {
      "inputs": [
        {
          "internalType": "address",
          "name": "to",
          "type": "address"
        },
        {
          "internalType": "uint256",
          "name": "value",
          "type": "uint256"
        }
      ],
      "name": "transfer",
      "outputs": [
        {
          "internalType": "bool",
          "name": "",
          "type": "bool"
        }
      ],
      "stateMutability": "nonpayable",
      "type": "function"
    },
    {
      "inputs": [
        {
          "internalType": "address",
          "name": "from",
          "type": "address"
        },
        {
          "internalType": "address",
          "name": "to",
          "type": "address"
        },
        {
          "internalType": "uint256",
          "name": "value",
          "type": "uint256"
        }
      ],
      "name": "transferFrom",
      "outputs": [
        {
          "internalType": "bool",
          "name": "",
          "type": "bool"
        }
      ],
      "stateMutability": "nonpayable",
      "type": "function"
    }
  ],
  "bytecode": "0x608060405234801561001057600080fd5b50604051611a63380380611a6383398181016040528101906100329190610273565b6040518060400160405280600681526020017f52414a494e4900000000000000000000000000000000000000000000000000008152506040518060400160405280600381526020017f52414a000000000000000000000000000000000000000000000000000000000081525081600390816100ad9190610515565b5080600490816100bd9190610515565b5050505050506105e7565b6000604051905090565b600080fd5b600080fd5b600080fd5b600080fd5b6000601f19601f8301169050919050565b7f4e487b7100000000000000000000000000000000000000000000000000000000600052604160045260246000fd5b61012f826100e6565b810181811067ffffffffffffffff8211171561014e5761014d6100f7565b5b80604052505050565b60006101616100c8565b905061016d8282610126565b919050565b600067ffffffffffffffff82111561018d5761018c6100f7565b5b610196826100e6565b9050602081019050919050565b60005b838110156101c15780820151818401526020810190506101a6565b60008484015250505050565b60006101e06101db84610172565b610157565b9050828152602081018484840111156101fc576101fb6100e1565b5b6102078482856101a3565b509392505050565b600082601f830112610224576102236100dc565b5b81516102348482602086016101cd565b91505092915050565b6000819050919050565b6102508161023d565b811461025b57600080fd5b50565b60008151905061026d81610247565b92915050565b60008060006060848603121561028c5761028b6100d2565b5b600084015167ffffffffffffffff8111156102aa576102a96100d7565b5b6102b68682870161020f565b935050602084015167ffffffffffffffff8111156102d7576102d66100d7565b5b6102e38682870161020f565b92505060406102f48682870161025e565b9150509250925092565b600081519050919050565b7f4e487b7100000000000000000000000000000000000000000000000000000000600052602260045260246000fd5b6000600282049050600182168061035057607f821691505b60208210810361036357610362610309565b5b50919050565b60008190508160005260206000209050919050565b60006020601f8301049050919050565b600082821b905092915050565b6000600883026103cb7fffffffffffffffffffffffffffffffffffffffffffffffffffffffffffffffff8261038e565b6103d5868361038e565b95508019841693508086168417925050509392505050565b6000819050919050565b600061041261040d6104088461023d565b6103ed565b61023d565b9050919050565b6000819050919050565b61042c836103f7565b61044061043882610419565b84845461039b565b825550505050565b600090565b610455610448565b610460818484610423565b505050565b5b818110156104845761047960008261044d565b600181019050610466565b5050565b601f8211156104c95761049a81610369565b6104a38461037e565b810160208510156104b2578190505b6104c66104be8561037e565b830182610465565b50505b505050565b600082821c905092915050565b60006104ec600019846008026104ce565b1980831691505092915050565b600061050583836104db565b9150826002028217905092915050565b61051e826102fe565b67ffffffffffffffff811115610537576105366100f7565b5b6105418254610338565b61054c828285610488565b600060209050601f83116001811461057f576000841561056d578287015190505b61057785826104f9565b8655506105df565b601f19841661058d86610369565b60005b828110156105b557848901518255600182019150602085019450602081019050610590565b868310156105d257848901516105ce601f8916826104db565b8355505b6001600288020188555050505b505050505050565b61146d806105f66000396000f3fe608060405234801561001057600080fd5b506004361061009e5760003560e01c806370a082311161006657806370a082311461015d57806395d89b411461018d578063a9059cbb146101ab578063bd3a13f6146101db578063dd62ed3e146101f75761009e565b806306fdde03146100a3578063095ea7b3146100c157806318160ddd146100f157806323b872dd1461010f578063313ce5671461013f575b600080fd5b6100ab610227565b6040516100b89190610bf4565b60405180910390f35b6100db60048036038101906100d69190610cbe565b6102b9565b6040516100e89190610d19565b60405180910390f35b6100f96102dc565b6040516101069190610d43565b60405180910390f35b61012960048036038101906101249190610d5e565b6102e6565b6040516101369190610d19565b60405180910390f35b610147610315565b6040516101549190610dcd565b60405180910390f35b61017760048036038101906101729190610de8565b61031e565b6040516101849190610d43565b60405180910390f35b610195610366565b6040516101a29190610bf4565b60405180910390f35b6101c560048036038101906101c09190610cbe565b6103f8565b6040516101d29190610d19565b60405180910390f35b6101f560048036038101906101f09190610f4a565b61041b565b005b610211600480360381019061020c9190610fe9565b6104bd565b60405161021e9190610d43565b60405180910390f35b60606006805461023690611058565b80601f016020809104026020016040519081016040528092919081815260200182805461026290611058565b80156102af5780601f10610284576101008083540402835291602001916102af565b820191906000526020600020905b81548152906001019060200180831161029257829003601f168201915b5050505050905090565b6000806102c4610544565b90506102d181858561054c565b600191505092915050565b6000600254905090565b6000806102f1610544565b90506102fe85828561055e565b6103098585856105f2565b60019150509392505050565b60006012905090565b60008060008373ffffffffffffffffffffffffffffffffffffffff1673ffffffffffffffffffffffffffffffffffffffff168152602001908152602001600020549050919050565b60606007805461037590611058565b80601f01602080910402602001604051908101604052809291908181526020018280546103a190611058565b80156103ee5780601f106103c3576101008083540402835291602001916103ee565b820191906000526020600020905b8154815290600101906020018083116103d157829003601f168201915b5050505050905090565b600080610403610544565b90506104108185856105f2565b600191505092915050565b600560009054906101000a900460ff161561046b576040517f08c379a0000000000000000000000000000000000000000000000000000000008152600401610462906110d5565b60405180910390fd5b6001600560006101000a81548160ff021916908315150217905550836006908161049591906112a1565b5082600790816104a591906112a1565b50816008819055506104b781836106e6565b50505050565b6000600160008473ffffffffffffffffffffffffffffffffffffffff1673ffffffffffffffffffffffffffffffffffffffff16815260200190815260200160002060008373ffffffffffffffffffffffffffffffffffffffff1673ffffffffffffffffffffffffffffffffffffffff16815260200190815260200160002054905092915050565b600033905090565b6105598383836001610768565b505050565b600061056a84846104bd565b90507fffffffffffffffffffffffffffffffffffffffffffffffffffffffffffffffff81146105ec57818110156105dc578281836040517ffb8f41b20000000000000000000000000000000000000000000000000000000081526004016105d393929190611382565b60405180910390fd5b6105eb84848484036000610768565b5b50505050565b600073ffffffffffffffffffffffffffffffffffffffff168373ffffffffffffffffffffffffffffffffffffffff16036106645760006040517f96c6fd1e00000000000000000000000000000000000000000000000000000000815260040161065b91906113b9565b60405180910390fd5b600073ffffffffffffffffffffffffffffffffffffffff168273ffffffffffffffffffffffffffffffffffffffff16036106d65760006040517fec442f050000000000000000000000000000000000000000000000000000000081526004016106cd91906113b9565b60405180910390fd5b6106e183838361093f565b505050565b600073ffffffffffffffffffffffffffffffffffffffff168273ffffffffffffffffffffffffffffffffffffffff16036107585760006040517fec442f0500000000000000000000000000000000000000000000000000000000815260040161074f91906113b9565b60405180910390fd5b6107646000838361093f565b5050565b600073ffffffffffffffffffffffffffffffffffffffff168473ffffffffffffffffffffffffffffffffffffffff16036107da5760006040517fe602df050000000000000000000000000000000000000000000000000000000081526004016107d191906113b9565b60405180910390fd5b600073ffffffffffffffffffffffffffffffffffffffff168373ffffffffffffffffffffffffffffffffffffffff160361084c5760006040517f94280d6200000000000000000000000000000000000000000000000000000000815260040161084391906113b9565b60405180910390fd5b81600160008673ffffffffffffffffffffffffffffffffffffffff1673ffffffffffffffffffffffffffffffffffffffff16815260200190815260200160002060008573ffffffffffffffffffffffffffffffffffffffff1673ffffffffffffffffffffffffffffffffffffffff168152602001908152602001600020819055508015610939578273ffffffffffffffffffffffffffffffffffffffff168473ffffffffffffffffffffffffffffffffffffffff167f8c5be1e5ebec7d5bd14f71427d1e84f3dd0314c0f7b2291e5b200ac8c7c3b925846040516109309190610d43565b60405180910390a35b50505050565b600073ffffffffffffffffffffffffffffffffffffffff168373ffffffffffffffffffffffffffffffffffffffff16036109915780600260008282546109859190611403565b92505081905550610a64565b60008060008573ffffffffffffffffffffffffffffffffffffffff1673ffffffffffffffffffffffffffffffffffffffff16815260200190815260200160002054905081811015610a1d578381836040517fe450d38c000000000000000000000000000000000000000000000000000000008152600401610a1493929190611382565b60405180910390fd5b8181036000808673ffffffffffffffffffffffffffffffffffffffff1673ffffffffffffffffffffffffffffffffffffffff16815260200190815260200160002081905550505b600073ffffffffffffffffffffffffffffffffffffffff168273ffffffffffffffffffffffffffffffffffffffff1603610aad5780600260008282540392505081905550610afa565b806000808473ffffffffffffffffffffffffffffffffffffffff1673ffffffffffffffffffffffffffffffffffffffff168152602001908152602001600020600082825401925050819055505b8173ffffffffffffffffffffffffffffffffffffffff168373ffffffffffffffffffffffffffffffffffffffff167fddf252ad1be2c89b69c2b068fc378daa952ba7f163c4a11628f55a4df523b3ef83604051610b579190610d43565b60405180910390a3505050565b600081519050919050565b600082825260208201905092915050565b60005b83811015610b9e578082015181840152602081019050610b83565b60008484015250505050565b6000601f19601f8301169050919050565b6000610bc682610b64565b610bd08185610b6f565b9350610be0818560208601610b80565b610be981610baa565b840191505092915050565b60006020820190508181036000830152610c0e8184610bbb565b905092915050565b6000604051905090565b600080fd5b600080fd5b600073ffffffffffffffffffffffffffffffffffffffff82169050919050565b6000610c5582610c2a565b9050919050565b610c6581610c4a565b8114610c7057600080fd5b50565b600081359050610c8281610c5c565b92915050565b6000819050919050565b610c9b81610c88565b8114610ca657600080fd5b50565b600081359050610cb881610c92565b92915050565b60008060408385031215610cd557610cd4610c20565b5b6000610ce385828601610c73565b9250506020610cf485828601610ca9565b9150509250929050565b60008115159050919050565b610d1381610cfe565b82525050565b6000602082019050610d2e6000830184610d0a565b92915050565b610d3d81610c88565b82525050565b6000602082019050610d586000830184610d34565b92915050565b600080600060608486031215610d7757610d76610c20565b5b6000610d8586828701610c73565b9350506020610d9686828701610c73565b9250506040610da786828701610ca9565b9150509250925092565b600060ff82169050919050565b610dc781610db1565b82525050565b6000602082019050610de26000830184610dbe565b92915050565b600060208284031215610dfe57610dfd610c20565b5b6000610e0c84828501610c73565b91505092915050565b600080fd5b600080fd5b7f4e487b7100000000000000000000000000000000000000000000000000000000600052604160045260246000fd5b610e5782610baa565b810181811067ffffffffffffffff82111715610e7657610e75610e1f565b5b80604052505050565b6000610e89610c16565b9050610e958282610e4e565b919050565b600067ffffffffffffffff821115610eb557610eb4610e1f565b5b610ebe82610baa565b9050602081019050919050565b82818337600083830152505050565b6000610eed610ee884610e9a565b610e7f565b905082815260208101848484011115610f0957610f08610e1a565b5b610f14848285610ecb565b509392505050565b600082601f830112610f3157610f30610e15565b5b8135610f41848260208601610eda565b91505092915050565b60008060008060808587031215610f6457610f63610c20565b5b600085013567ffffffffffffffff811115610f8257610f81610c25565b5b610f8e87828801610f1c565b945050602085013567ffffffffffffffff811115610faf57610fae610c25565b5b610fbb87828801610f1c565b9350506040610fcc87828801610ca9565b9250506060610fdd87828801610c73565b91505092959194509250565b6000806040838503121561100057610fff610c20565b5b600061100e85828601610c73565b925050602061101f85828601610c73565b9150509250929050565b7f4e487b7100000000000000000000000000000000000000000000000000000000600052602260045260246000fd5b6000600282049050600182168061107057607f821691505b60208210810361108357611082611029565b5b50919050565b7f416c726561647920696e697469616c697a656400000000000000000000000000600082015250565b60006110bf601383610b6f565b91506110ca82611089565b602082019050919050565b600060208201905081810360008301526110ee816110b2565b9050919050565b60008190508160005260206000209050919050565b60006020601f8301049050919050565b600082821b905092915050565b6000600883026111577fffffffffffffffffffffffffffffffffffffffffffffffffffffffffffffffff8261111a565b611161868361111a565b95508019841693508086168417925050509392505050565b6000819050919050565b600061119e61119961119484610c88565b611179565b610c88565b9050919050565b6000819050919050565b6111b883611183565b6111cc6111c4826111a5565b848454611127565b825550505050565b600090565b6111e16111d4565b6111ec8184846111af565b505050565b5b81811015611210576112056000826111d9565b6001810190506111f2565b5050565b601f82111561125557611226816110f5565b61122f8461110a565b8101602085101561123e578190505b61125261124a8561110a565b8301826111f1565b50505b505050565b600082821c905092915050565b60006112786000198460080261125a565b1980831691505092915050565b60006112918383611267565b9150826002028217905092915050565b6112aa82610b64565b67ffffffffffffffff8111156112c3576112c2610e1f565b5b6112cd8254611058565b6112d8828285611214565b600060209050601f83116001811461130b57600084156112f9578287015190505b6113038582611285565b86555061136b565b601f198416611319866110f5565b60005b828110156113415784890151825560018201915060208501945060208101905061131c565b8683101561135e578489015161135a601f891682611267565b8355505b6001600288020188555050505b505050505050565b61137c81610c4a565b82525050565b60006060820190506113976000830186611373565b6113a46020830185610d34565b6113b16040830184610d34565b949350505050565b60006020820190506113ce6000830184611373565b92915050565b7f4e487b7100000000000000000000000000000000000000000000000000000000600052601160045260246000fd5b600061140e82610c88565b915061141983610c88565b9250828201905080821115611431576114306113d4565b5b9291505056fea264697066735822122080258c7f65c8dff1ccb003747f84cb77d7e28ccf4b30e140bab8cf51be4b8b6e64736f6c634300081b0033",
  "linkReferences": {},
  "deployedLinkReferences": {}
}